:060000000A128A110C280F
:10000800FE00030EF2000A08F3000A128A15722F86
:100018000A128A110F28F601F701F801F901831273
:100028000313E601E701E801E901EA01EB01EC014C
:10003800ED01EE0183010A128A11BF2D8312031309
:1000480031088039BB003108B6003607C100B01F3F
:100058002E282F2830284114410803193428352820
:100068004428410A031D39283A2842280030B100A3
:100078000030B0000030AF000030AE00B0174C28A0
:100088000030B1000030B0000030AF000030AE00EA
:1000980035088039B6003608BB063508B60036077D
:1000A800BC00B41F582859285A283C143C08031986
:1000B8005E285F286E283C0A031D632864286C2884
:1000C8000030B5000030B4000030B3000030B2009A
:1000D800B41776280030B5000030B4000030B30003
:1000E8000030B2003C0803197A287B288028410890
:1000F800031D7F28802889280030B1000030B00017
:100108000030AF000030AE00662B2E08F400340833
:100118000A128A11D7270A128A1175088312031343
:10012800C7007408C6004608B600B701B801B9018F
:100138003908C0003808BF003708BE003608BD00BF
:100148004708B600B701B801B9013908C500380831
:10015800C4003708C3003608C2002F08F40033086B
:100168000A128A11D7270A128A11750883120313F3
:10017800C7007408C6004608B600B701B801B9013F
:100188003608BD07370803110318013E0319CD28A7
:10019800BE07380803110318013E0319D428BF0706
:1001A800390803110318013E0319DB28C007470863
:1001B800B600B701B801B9013608C20737080311FC
:1001C8000318013E0319E928C30738080311031867
:1001D800013E0319F028C407390803110318013E2A
:1001E8000319F728C5073008F40032080A128A11E3
:1001F800D7270A128A11750883120313C7007408D7
:10020800C6004608B600B701B801B9013608BD07EF
:10021800370803110318013E03191329BE073808CC
:1002280003110318013E03191A29BF0739080311DE
:100238000318013E03192129C0074708B600B70172
:10024800B801B9013608C207370803110318013E7F
:1002580003192F29C307380803110318013E03198E
:100268003629C407390803110318013E03193D292B
:10027800C5070830B6000310BD0DBE0DBF0DC00D7B
:10028800B60B3F292F08F40032080A128A11D72723
:100298000A128A11750883120313C7007408C6006E
:1002A8004608B6004708B700B801B9013608BD07C7
:1002B800370803110318013E03196329BE073808DC
:1002C80003110318013E03196A29BF0739080311EE
:1002D8000318013E03197129C0072E08F4003308DA
:1002E8000A128A11D7270A128A1175088312031372
:1002F800C7007408C6004608B6004708B700B8012A
:10030800B9013608BD07370803110318013E031960
:100318008E29BE07380803110318013E03199529D1
:10032800BF07390803110318013E03199C29C007A8
:100338000830B6000310BD0DBE0DBF0DC00DB60BC5
:100348009E292E08F40032080A128A11D7270A12A9
:100358008A11750883120313C7007408C60046087B
:10036800B6004708B700B801B9013608BD07370815
:1003780003110318013E0319C229BE0738080311E7
:100388000318013E0319C929BF07390803110318C7
:10039800013E0319D029C0072F08F40034080A12B7
:1003A8008A11D7270A128A11750883120313C70006
:1003B8007408C6004608B6004708B700B801B90176
:1003C8003608C207370803110318013E0319ED293F
:1003D800C307380803110318013E0319F429C40799
:1003E800390803110318013E0319FB29C507300812
:1003F800F40033080A128A11D7270A128A117508DD
:1004080083120313C7007408C6004608B6004708DD
:10041800B700B801B9013608C20737080311031835
:10042800013E0319182AC307380803110318013EAF
:1004380003191F2AC407390803110318013E0319B9
:10044800262AC5073008F40034080A128A11D7276B
:100458000A128A11750883120313C7007408C600AC
:100468004608B6004708B700B801B90108300310BC
:10047800B60DB70DB80DB90DFF3E031D3B2A360862
:10048800C207370803110318013E03194C2AC30792
:10049800380803110318013E0319532AC407390801
:1004A80003110318013E03195A2AC5073D08B6006F
:1004B8003E08B7003F08B8004008B90018300310DC
:1004C800B90CB80CB70CB60CFF3E031D632A3608EE
:1004D800C207370803110318013E0319742AC3071A
:1004E800380803110318013E03197B2AC407390889
:1004F80003110318013E0319822AC5070830B60004
:100508000310BD0DBE0DBF0DC00DB60B842A4108EA
:100518003C07B600B701B70D3608823EC60037085B
:100528000318013EFF3EC700B62A0130B60003108B
:10053800C20DC30DC40DC50DB60B9B2AC01FA52A3D
:10054800A62AA72A42140130B6000310BD0DBE0D1D
:10055800BF0DC00DB60BA92AFF30C6070318C70A7E
:10056800FF30C707C41FB92ABA2A992ABC01C01F7D
:10057800BE2ABF2ADB2AFF303D05B600FF303E0504
:10058800B700FF303F05B8007F304005B900390893
:100598003804370436040319D22AD32AD62ABC01D0
:1005A800BC0ADB2A421CD92ADA2ADB2AD32A3C08CD
:1005B8000319DF2AE02A112B0130C2070030031883
:1005C8000130C307003003180130C4070030031896
:1005D8000130C507451CF12AF22A112B4208B60042
:1005E8004308B7004408B8004508B9000130BA000C
:1005F800390DB90CB80CB70CB60CBA0BFC2A390873
:10060800C5003808C4003708C3003608C2000130E6
:10061800C6070318C70A0030C7074708803AFF0013
:1006280080307F02031D1A2BFF304602031C1D2B4E
:100638001E2B292B7F3083120313C5008030C40082
:100648000030C3000030C2005A2B8312031347083E
:10065800803AFF0080307F02031D342B01304602B0
:100668000318372B382B442B003083120313C50093
:100678000030C4000030C3000030C200BB015A2B58
:10068800831203134608C100FF30C205FF30C305BB
:100698007F30C4050030C505411C532B542B552B06
:1006A800C4174108B6000310360CC5003B08B60055
:1006B8003608C5044508B1004408B0004308AF0037
:1006C8004208AE000800831203134B088039D80093
:1006D8004B08D0005007DA00CA1F732B742B752BF8
:1006E8005A145A080319792B7A2B8A2B5A0A031D94
:1006F8007E2B7F2B872B0030CB000030CA000030C8
:10070800C9000030C800CA17CB01922B0030CB00BB
:100718000030CA000030C9000030C8004F088039D6
:10072800D9005908580603199A2B9B2B9C2B58174C
:100738004F08D0005007D900CE1FA32BA42BA52B00
:10074800591459080319A92BAA2BBA2B590A031DA6
:10075800AE2BAF2BB72B0030CF000030CE000030CF
:10076800CD000030CC00CE17CF01C22B0030CF0017
:100778000030CE000030CD000030CC005A085902BD
:100788000318C72BC82BEE2B581FCB2BCC2BD02BE9
:100798008030D0005008D8065A08DB005908DA0023
:1007A8005B08D9004808DB004C08C8005B08CC008F
:1007B8004908DB004D08C9005B08CD004A08DB008A
:1007C8004E08CA005B08CE004B08DB004F08CB0080
:1007D8005B08CF00DB015908D000D1015108D300D4
:1007E8005A085002D200031CD3035308803AFF0072
:1007F80080307F02031D022C1A305202031C052C84
:10080800062C3D2C831203134B084A044904480460
:10081800031D0F2C112C0130122C0030DB0000308E
:10082800CB000030CA000030C9000030C8005908A9
:10083800DA00452C5B1C212C222C292C5B08D000CB
:100848000310500C0138DB002B2C0310DB0C481C68
:100858002E2C2F2C302CDB170130D0004B0DCB0C5D
:10086800CA0CC90CC80CD00B322C0130D00050086F
:10087800DA078312031359085A02031C442C452C27
:100888001E2C581B482C492C922C5A08031D4D2C01
:100898004E2C572C0030CB000030CA000030C90065
:1008A8000030C800BE2D4C08C8074D0803110318B6
:1008B800013E0319602CC9074E0803110318013EB5
:1008C8000319672CCA074F0803110318013E0319BF
:1008D8006E2CCB074B1C712C722C462D5B1C752C77
:1008E800762C7D2C5B08D0000310500C0138DB00FF
:1008F8007F2C0310DB0C481C822C832C842CDB17E8
:100908000130D0004B0DCB0CCA0CC90CC80CD00B55
:10091800862C0130D0005008DA07462D4B08803A63
:10092800FF004F08803A7F02031DA42C4E084A029C
:10093800031DA42C4D084902031DA42C4C08480291
:100948000318A72CA82C002DFF30D000FF30D100B1
:10095800FF30D200FF30D3004C08D4004D08D5003A
:100968004E08D6004F08D7004808D4024908031C8F
:10097800490FBF2CC02CD5024A08031C4A0FC52CAE
:10098800C62CD6024B08031C4B0FCB2CCC2CD70201
:100998005408D00755080318550FD32CD42CD10769
:1009A80056080318560FD92CDA2CD2075708031803
:1009B800570AD3075308CB005208CA005108C90088
:1009C8005008C8008030D0005008D806DB09DB0A80
:1009D8005B08031DF02CF12C0E2D0130C8070030E8
:1009E80003180130C907003003180130CA07003066
:1009F80003180130CB070E2D4C08C8024D08031C04
:100A08004D0FC9024E08031C4E0FCA024F08031CA3
:100A18004F0FCB024B084A0449044804031D152D07
:100A2800162D422D5B08031D1A2D1B2D422D00305B
:100A3800CB000030CA000030C9000030C800BE2D0D
:100A48000130D0000310C80DC90DCA0DCB0DD00B55
:100A5800262DDB1F302D312D322D48145B1C352DF2
:100A6800362D392D0314DB0D3B2D0310DB0D5A08F1
:100A780003193F2D402D422D0130DA02CA1F452DA2
:100A8800462D242DD901DB1F4A2D4B2D592D5B08EE
:100A98007F390319502D512D542DD901D90A592DBB
:100AA800481C572D582D592D512D590803195D2DC6
:100AB8005E2D922D0130C807003003180130C90798
:100AC800003003180130CA07003003180130CB0783
:100AD8004B1C6F2D702D922D4808D0004908D1006D
:100AE8004A08D2004B08D3000130D400530DD30C70
:100AF800D20CD10CD00CD40B7A2D5308CB00520851
:100B0800CA005108C9005008C8005A0A03198D2D97
:100B18008E2D922D0130D0005008DA075A0A031999
:100B2800962D972D9C2D5A08031D9B2D9C2DAA2D83
:100B38000030CB000030CA000030C9000030C800C7
:100B48005A08031DA82DA92DAA2DD8015A1CAD2D70
:100B5800AE2DB02DCA17B42D7F30D0005008CA056D
:100B68005A08D0000310500CCB00D81FBC2DBD2D47
:100B7800BE2DCB1708000A128A1516270A128A11E9
:100B88000A128A1544270A128A110A128A15F126AE
:100B98000A128A1183120313EE01702E85160512AC
:100BA800061386131F08C33904389F0003308316C1
:100BB8000313A200A20BDE2D831203139F149F18A8
:100BC800E62DE72DE32D1E0883160313A200A301CB
:100BD800220883120313EA008316031323088312DF
:100BE8000313EB006B0883160313A100831203138E
:100BF8006A0883160313A0000A128A15A5270A1289
:100C08008A11831203136C089500033083160313AB
:100C1800A200A20B0D2E831203131F08C339083834
:100C28009F00033083160313A200A20B192E831210
:100C380003139F149F18212E222E1E2E1E08831682
:100C48000313A200A301220883120313E8008316EA
:100C58000313230883120313E90069088316031397
:100C6800A10083120313680883160313A0000A1255
:100C78008A15A5270A128A11831203136C089B0090
:100C8800033083160313A200A20B482E831203130A
:100C98009F14033083160313A200A20B512E831254
:100CA80003139F149F18592E5A2E562E1E0883166A
:100CB8000313A200A301220883120313E60083167C
:100CC8000313230883120313E70003308316031367
:100CD800A200A20B6D2E702E83120313061C752E14
:100CE800762E7F2E861C792E7A2ED22D7F2E851277
:100CF8000516061386130618822E832E8C2E861848
:100D0800862E872E7B2E8C2E8512051206178613AB
:100D1800061C8F2E902E992E8618932E942E882E90
:100D2800992E851205120613861706189C2E9D2EDD
:100D3800702E861CA02EA12E952E702E0A128A11B6
:100D48000C2883120313A80028080319AC2EAD2E13
:100D5800C12EA31FB02EB12EC12E2009AA00210931
:100D6800AB002209AC002309AD00AA0A0319AB0A9B
:100D78000319AC0A0319AD0AC92E2308AD002208CD
:100D8800AC002108AB002008AA0023082204210493
:100D98002004031DD02ED12EDA2E0030A3000030FF
:100DA800A2000030A1000030A0005E2F9630A900FC
:100DB800EA2E0130A4002408A90701300310AD0C65
:100DC800AC0CAB0CAA0CFF3E031DE22EFE302D0529
:100DD800031DEF2EF02EDD2E0C2F0130A400240869
:100DE800A9070130AA07003003180130AB0700300B
:100DF80003180130AC07003003180130AD0701308B
:100E08000310AD0CAC0CAB0CAA0CFF3E031D042F59
:100E1800FF302D05031D112F122FF12E1E2F01302B
:100E2800A9020130A4000310AA0DAB0DAC0DAD0D45
:100E3800A40B172FAC1B212F222F282F0230290299
:100E48000318272F282F132F29182B2F2C2F342F37
:100E5800FF30AA05FF30AB057F30AC05FF30AD058C
:100E68000310A90C2908A400A501A601A7011830A0
:100E78000310A40DA50DA60DA70DFF3E031D3C2FC5
:100E88002408AA042508AB042608AC042708AD04E6
:100E980028080319502F512F562FA31F542F552FB1
:100EA800562FAD172D08A3002C08A2002B08A1006F
:100EB8002A08A00008000310831203135E0D5F0DBB
:100EC800E5006508031D692F6A2F732F0030DF00C6
:100ED8000030DE000030DD000030DC00D62F5C087A
:100EE800E0005D08E1005E08E2005F08E3001F30F3
:100EF8000310E30CE20CE10CE00CFF3E031D7C2F19
:100F08006008E400DE17FF30DC05FF30DD05FF3048
:100F1800DE050030DF059630E502E51F942F952F9A
:100F2800AF2F6508803A973E03189B2F9C2F9D2F63
:100F38006A2F01300310DF0CDE0CDD0CDC0CFF3EE9
:100F4800031D9E2F0130E0006008E507031DAD2F4B
:100F5800AE2F9D2FC62F20306502031CB42FB52F4E
:100F6800C12F6A2F0130E0000310DC0DDD0DDE0D0E
:100F7800DF0DE00BB82F0130E5026508031DC52F12
:100F8800C62FB62F64080319CA2FCB2FD62FDC091A
:100F9800DD09DE09DF09DC0A0319DD0A0319DE0AA7
:100FA8000319DF0A080083120313A600A201A30194
:100FB8007408A000A1012008A4002108A500261C8F
:100FC800E62FE72FED2F2408A2070318A30A250808
:100FD800A30701300310A40DA50DFF3E031DEE2F3E
:100FE8000310A60C2608031DFA2FFB2FE32F230856
:080FF800F5002208F4000800D6
:101DE2008316031387140715FF3092003F308312C6
:101DF200031397051708F0390C3897000F309D042C
:101E0200303097040B3095009D161D160B3095004F
:101E12008C100330920412158C1C102F112F0D2FD1
:101E2200831603138710071108000F308316031758
:101E3200880089010F3083160313850080308700E4
:101E4200033086008312031385018801870188010C
:101E5200831603130F088F3930388F000F148B1736
:101E62000C17831203130C138B160B118316031317
:101E7200811281110108F83903388100F030831290
:101E82000313810008008316031305148316031736
:101E920008148316031385148316031788148316F4
:101EA20003130515831603170815831603138515E7
:101EB200831603178815831203139F131F178316A4
:101EC20003139F121F129F13831203131F08C33998
:101ED20008389F001F140330F400F40B6E2F712F8B
:101EE20008000B1D752F762F9E2F0130F000700811
:101EF20083120313EE076708803AF0008030700205
:101F0200031D852F6E086602031C882F892F962FCA
:101F12008312031387150430F1003D30F000F00BFB
:101F2200902FF10B902F952F992F83120313871166
:101F3200F0308312031381000B1173088A00720EB2
:101F42008300FE0E7E0E09008316031320088312FF
:101F52000313A00083160313210883120313A100A5
:101F62000030A11BFF30A200A30001300A128A1127
:101F7200A5260A128A15831203132308B500220824
:101F8200B4002108B3002008B2003D30B100103087
:101F9200B0009030AF009130AE000A128A112220B8
:101FA2000A128A15831203133108CF003008CE00BB
:101FB2002F08CD002E08CC004030CB00E030CA0004
:101FC2000030C9000030C8000A128A1167230A12C1
:101FD2008A15831203134B08DF004A08DE00490802
:101FE200DD004808DC000A128A115F270A128A15EE
:0E1FF200831203135D08ED005C08EC0008008C
:08400000FF3FFF3FFF3FFF3FC0
:04400E00C420FF3F8C
:00000001FF
